{
  "_format": "hh-sol-artifact-1",
  "contractName": "AceHacks",
  "sourceName": "contracts/registration.sol",
  "abi": [
    {
      "inputs": [],
      "stateMutability": "nonpayable",
      "type": "constructor"
    },
    {
      "inputs": [
        {
          "internalType": "address",
          "name": "sender",
          "type": "address"
        },
        {
          "internalType": "uint256",
          "name": "tokenId",
          "type": "uint256"
        },
        {
          "internalType": "address",
          "name": "owner",
          "type": "address"
        }
      ],
      "name": "ERC721IncorrectOwner",
      "type": "error"
    },
    {
      "inputs": [
        {
          "internalType": "address",
          "name": "operator",
          "type": "address"
        },
        {
          "internalType": "uint256",
          "name": "tokenId",
          "type": "uint256"
        }
      ],
      "name": "ERC721InsufficientApproval",
      "type": "error"
    },
    {
      "inputs": [
        {
          "internalType": "address",
          "name": "approver",
          "type": "address"
        }
      ],
      "name": "ERC721InvalidApprover",
      "type": "error"
    },
    {
      "inputs": [
        {
          "internalType": "address",
          "name": "operator",
          "type": "address"
        }
      ],
      "name": "ERC721InvalidOperator",
      "type": "error"
    },
    {
      "inputs": [
        {
          "internalType": "address",
          "name": "owner",
          "type": "address"
        }
      ],
      "name": "ERC721InvalidOwner",
      "type": "error"
    },
    {
      "inputs": [
        {
          "internalType": "address",
          "name": "receiver",
          "type": "address"
        }
      ],
      "name": "ERC721InvalidReceiver",
      "type": "error"
    },
    {
      "inputs": [
        {
          "internalType": "address",
          "name": "sender",
          "type": "address"
        }
      ],
      "name": "ERC721InvalidSender",
      "type": "error"
    },
    {
      "inputs": [
        {
          "internalType": "uint256",
          "name": "tokenId",
          "type": "uint256"
        }
      ],
      "name": "ERC721NonexistentToken",
      "type": "error"
    },
    {
      "inputs": [
        {
          "internalType": "address",
          "name": "owner",
          "type": "address"
        }
      ],
      "name": "OwnableInvalidOwner",
      "type": "error"
    },
    {
      "inputs": [
        {
          "internalType": "address",
          "name": "account",
          "type": "address"
        }
      ],
      "name": "OwnableUnauthorizedAccount",
      "type": "error"
    },
    {
      "anonymous": false,
      "inputs": [
        {
          "indexed": true,
          "internalType": "address",
          "name": "owner",
          "type": "address"
        },
        {
          "indexed": true,
          "internalType": "address",
          "name": "approved",
          "type": "address"
        },
        {
          "indexed": true,
          "internalType": "uint256",
          "name": "tokenId",
          "type": "uint256"
        }
      ],
      "name": "Approval",
      "type": "event"
    },
    {
      "anonymous": false,
      "inputs": [
        {
          "indexed": true,
          "internalType": "address",
          "name": "owner",
          "type": "address"
        },
        {
          "indexed": true,
          "internalType": "address",
          "name": "operator",
          "type": "address"
        },
        {
          "indexed": false,
          "internalType": "bool",
          "name": "approved",
          "type": "bool"
        }
      ],
      "name": "ApprovalForAll",
      "type": "event"
    },
    {
      "anonymous": false,
      "inputs": [
        {
          "indexed": true,
          "internalType": "address",
          "name": "previousOwner",
          "type": "address"
        },
        {
          "indexed": true,
          "internalType": "address",
          "name": "newOwner",
          "type": "address"
        }
      ],
      "name": "OwnershipTransferred",
      "type": "event"
    },
    {
      "anonymous": false,
      "inputs": [
        {
          "indexed": true,
          "internalType": "address",
          "name": "from",
          "type": "address"
        },
        {
          "indexed": true,
          "internalType": "address",
          "name": "to",
          "type": "address"
        },
        {
          "indexed": true,
          "internalType": "uint256",
          "name": "tokenId",
          "type": "uint256"
        }
      ],
      "name": "Transfer",
      "type": "event"
    },
    {
      "inputs": [
        {
          "internalType": "string",
          "name": "_ULPIN",
          "type": "string"
        },
        {
          "internalType": "string",
          "name": "_name",
          "type": "string"
        },
        {
          "internalType": "uint256",
          "name": "_contact",
          "type": "uint256"
        },
        {
          "internalType": "uint256",
          "name": "_aadharNumber",
          "type": "uint256"
        },
        {
          "internalType": "string",
          "name": "_plotNo",
          "type": "string"
        },
        {
          "internalType": "string",
          "name": "_propAddress",
          "type": "string"
        }
      ],
      "name": "addToRegister",
      "outputs": [],
      "stateMutability": "nonpayable",
      "type": "function"
    },
    {
      "inputs": [
        {
          "internalType": "address",
          "name": "to",
          "type": "address"
        },
        {
          "internalType": "uint256",
          "name": "tokenId",
          "type": "uint256"
        }
      ],
      "name": "approve",
      "outputs": [],
      "stateMutability": "nonpayable",
      "type": "function"
    },
    {
      "inputs": [
        {
          "internalType": "address",
          "name": "owner",
          "type": "address"
        }
      ],
      "name": "balanceOf",
      "outputs": [
        {
          "internalType": "uint256",
          "name": "",
          "type": "uint256"
        }
      ],
      "stateMutability": "view",
      "type": "function"
    },
    {
      "inputs": [
        {
          "internalType": "uint256",
          "name": "tokenId",
          "type": "uint256"
        }
      ],
      "name": "getApproved",
      "outputs": [
        {
          "internalType": "address",
          "name": "",
          "type": "address"
        }
      ],
      "stateMutability": "view",
      "type": "function"
    },
    {
      "inputs": [
        {
          "internalType": "bytes32",
          "name": "",
          "type": "bytes32"
        }
      ],
      "name": "individualExists",
      "outputs": [
        {
          "internalType": "bool",
          "name": "",
          "type": "bool"
        }
      ],
      "stateMutability": "view",
      "type": "function"
    },
    {
      "inputs": [
        {
          "internalType": "address",
          "name": "owner",
          "type": "address"
        },
        {
          "internalType": "address",
          "name": "operator",
          "type": "address"
        }
      ],
      "name": "isApprovedForAll",
      "outputs": [
        {
          "internalType": "bool",
          "name": "",
          "type": "bool"
        }
      ],
      "stateMutability": "view",
      "type": "function"
    },
    {
      "inputs": [],
      "name": "name",
      "outputs": [
        {
          "internalType": "string",
          "name": "",
          "type": "string"
        }
      ],
      "stateMutability": "view",
      "type": "function"
    },
    {
      "inputs": [],
      "name": "owner",
      "outputs": [
        {
          "internalType": "address",
          "name": "",
          "type": "address"
        }
      ],
      "stateMutability": "view",
      "type": "function"
    },
    {
      "inputs": [
        {
          "internalType": "uint256",
          "name": "tokenId",
          "type": "uint256"
        }
      ],
      "name": "ownerOf",
      "outputs": [
        {
          "internalType": "address",
          "name": "",
          "type": "address"
        }
      ],
      "stateMutability": "view",
      "type": "function"
    },
    {
      "inputs": [],
      "name": "renounceOwnership",
      "outputs": [],
      "stateMutability": "nonpayable",
      "type": "function"
    },
    {
      "inputs": [
        {
          "internalType": "address",
          "name": "from",
          "type": "address"
        },
        {
          "internalType": "address",
          "name": "to",
          "type": "address"
        },
        {
          "internalType": "uint256",
          "name": "tokenId",
          "type": "uint256"
        }
      ],
      "name": "safeTransferFrom",
      "outputs": [],
      "stateMutability": "nonpayable",
      "type": "function"
    },
    {
      "inputs": [
        {
          "internalType": "address",
          "name": "from",
          "type": "address"
        },
        {
          "internalType": "address",
          "name": "to",
          "type": "address"
        },
        {
          "internalType": "uint256",
          "name": "tokenId",
          "type": "uint256"
        },
        {
          "internalType": "bytes",
          "name": "data",
          "type": "bytes"
        }
      ],
      "name": "safeTransferFrom",
      "outputs": [],
      "stateMutability": "nonpayable",
      "type": "function"
    },
    {
      "inputs": [
        {
          "internalType": "address",
          "name": "operator",
          "type": "address"
        },
        {
          "internalType": "bool",
          "name": "approved",
          "type": "bool"
        }
      ],
      "name": "setApprovalForAll",
      "outputs": [],
      "stateMutability": "nonpayable",
      "type": "function"
    },
    {
      "inputs": [
        {
          "internalType": "bytes4",
          "name": "interfaceId",
          "type": "bytes4"
        }
      ],
      "name": "supportsInterface",
      "outputs": [
        {
          "internalType": "bool",
          "name": "",
          "type": "bool"
        }
      ],
      "stateMutability": "view",
      "type": "function"
    },
    {
      "inputs": [],
      "name": "symbol",
      "outputs": [
        {
          "internalType": "string",
          "name": "",
          "type": "string"
        }
      ],
      "stateMutability": "view",
      "type": "function"
    },
    {
      "inputs": [
        {
          "internalType": "uint256",
          "name": "tokenId",
          "type": "uint256"
        }
      ],
      "name": "tokenURI",
      "outputs": [
        {
          "internalType": "string",
          "name": "",
          "type": "string"
        }
      ],
      "stateMutability": "view",
      "type": "function"
    },
    {
      "inputs": [
        {
          "internalType": "address",
          "name": "from",
          "type": "address"
        },
        {
          "internalType": "address",
          "name": "to",
          "type": "address"
        },
        {
          "internalType": "uint256",
          "name": "tokenId",
          "type": "uint256"
        }
      ],
      "name": "transferFrom",
      "outputs": [],
      "stateMutability": "nonpayable",
      "type": "function"
    },
    {
      "inputs": [
        {
          "internalType": "address",
          "name": "newOwner",
          "type": "address"
        }
      ],
      "name": "transferOwnership",
      "outputs": [],
      "stateMutability": "nonpayable",
      "type": "function"
    }
  ],
  "bytecode": "0x60806040523480156200001157600080fd5b50336040518060400160405280600f81526020017f526567697374726174696f6e4e465400000000000000000000000000000000008152506040518060400160405280600381526020017f5245470000000000000000000000000000000000000000000000000000000000815250816000908162000090919062000472565b508060019081620000a2919062000472565b505050600073ffffffffffffffffffffffffffffffffffffffff168173ffffffffffffffffffffffffffffffffffffffff16036200011a5760006040517f1e4fbdf70000000000000000000000000000000000000000000000000000000081526004016200011191906200059e565b60405180910390fd5b6200012b816200013260201b60201c565b50620005bb565b6000600660009054906101000a900473ffffffffffffffffffffffffffffffffffffffff16905081600660006101000a81548173ffffffffffffffffffffffffffffffffffffffff021916908373ffffffffffffffffffffffffffffffffffffffff1602179055508173ffffffffffffffffffffffffffffffffffffffff168173ffffffffffffffffffffffffffffffffffffffff167f8be0079c531659141344cd1fd0a4f28419497f9722a3daafe3b4186f6b6457e060405160405180910390a35050565b600081519050919050565b7f4e487b7100000000000000000000000000000000000000000000000000000000600052604160045260246000fd5b7f4e487b7100000000000000000000000000000000000000000000000000000000600052602260045260246000fd5b600060028204905060018216806200027a57607f821691505b60208210810362000290576200028f62000232565b5b50919050565b60008190508160005260206000209050919050565b60006020601f8301049050919050565b600082821b905092915050565b600060088302620002fa7fffffffffffffffffffffffffffffffffffffffffffffffffffffffffffffffff82620002bb565b620003068683620002bb565b95508019841693508086168417925050509392505050565b6000819050919050565b6000819050919050565b6000620003536200034d62000347846200031e565b62000328565b6200031e565b9050919050565b6000819050919050565b6200036f8362000332565b620003876200037e826200035a565b848454620002c8565b825550505050565b600090565b6200039e6200038f565b620003ab81848462000364565b505050565b5b81811015620003d357620003c760008262000394565b600181019050620003b1565b5050565b601f8211156200042257620003ec8162000296565b620003f784620002ab565b8101602085101562000407578190505b6200041f6200041685620002ab565b830182620003b0565b50505b505050565b600082821c905092915050565b6000620004476000198460080262000427565b1980831691505092915050565b600062000462838362000434565b9150826002028217905092915050565b6200047d82620001f8565b67ffffffffffffffff81111562000499576200049862000203565b5b620004a5825462000261565b620004b2828285620003d7565b600060209050601f831160018114620004ea5760008415620004d5578287015190505b620004e1858262000454565b86555062000551565b601f198416620004fa8662000296565b60005b828110156200052457848901518255600182019150602085019450602081019050620004fd565b8683101562000544578489015162000540601f89168262000434565b8355505b6001600288020188555050505b505050505050565b600073ffffffffffffffffffffffffffffffffffffffff82169050919050565b6000620005868262000559565b9050919050565b620005988162000579565b82525050565b6000602082019050620005b560008301846200058d565b92915050565b61247580620005cb6000396000f3fe608060405234801561001057600080fd5b50600436106101165760003560e01c806370a08231116100a2578063a22cb46511610071578063a22cb465146102df578063b88d4fde146102fb578063c87b56dd14610317578063e985e9c514610347578063f2fde38b1461037757610116565b806370a0823114610269578063715018a6146102995780638da5cb5b146102a357806395d89b41146102c157610116565b80631947b09f116100e95780631947b09f146101b557806323b872dd146101e55780633bf4924b1461020157806342842e0e1461021d5780636352211e1461023957610116565b806301ffc9a71461011b57806306fdde031461014b578063081812fc14610169578063095ea7b314610199575b600080fd5b610135600480360381019061013091906119d1565b610393565b6040516101429190611a19565b60405180910390f35b610153610475565b6040516101609190611ac4565b60405180910390f35b610183600480360381019061017e9190611b1c565b610507565b6040516101909190611b8a565b60405180910390f35b6101b360048036038101906101ae9190611bd1565b610523565b005b6101cf60048036038101906101ca9190611c47565b610539565b6040516101dc9190611a19565b60405180910390f35b6101ff60048036038101906101fa9190611c74565b610559565b005b61021b60048036038101906102169190611dfc565b61065b565b005b61023760048036038101906102329190611c74565b610765565b005b610253600480360381019061024e9190611b1c565b610785565b6040516102609190611b8a565b60405180910390f35b610283600480360381019061027e9190611ef9565b610797565b6040516102909190611f35565b60405180910390f35b6102a1610851565b005b6102ab610865565b6040516102b89190611b8a565b60405180910390f35b6102c961088f565b6040516102d69190611ac4565b60405180910390f35b6102f960048036038101906102f49190611f7c565b610921565b005b6103156004803603810190610310919061205d565b610937565b005b610331600480360381019061032c9190611b1c565b610954565b60405161033e9190611ac4565b60405180910390f35b610361600480360381019061035c91906120e0565b6109bd565b60405161036e9190611a19565b60405180910390f35b610391600480360381019061038c9190611ef9565b610a51565b005b60007f80ac58cd000000000000000000000000000000000000000000000000000000007bffffffffffffffffffffffffffffffffffffffffffffffffffffffff1916827bffffffffffffffffffffffffffffffffffffffffffffffffffffffff1916148061045e57507f5b5e139f000000000000000000000000000000000000000000000000000000007bffffffffffffffffffffffffffffffffffffffffffffffffffffffff1916827bffffffffffffffffffffffffffffffffffffffffffffffffffffffff1916145b8061046e575061046d82610ad7565b5b9050919050565b6060600080546104849061214f565b80601f01602080910402602001604051908101604052809291908181526020018280546104b09061214f565b80156104fd5780601f106104d2576101008083540402835291602001916104fd565b820191906000526020600020905b8154815290600101906020018083116104e057829003601f168201915b5050505050905090565b600061051282610b41565b5061051c82610bc9565b9050919050565b6105358282610530610c06565b610c0e565b5050565b60076020528060005260406000206000915054906101000a900460ff1681565b600073ffffffffffffffffffffffffffffffffffffffff168273ffffffffffffffffffffffffffffffffffffffff16036105cb5760006040517f64a0ae920000000000000000000000000000000000000000000000000000000081526004016105c29190611b8a565b60405180910390fd5b60006105df83836105da610c06565b610c20565b90508373ffffffffffffffffffffffffffffffffffffffff168173ffffffffffffffffffffffffffffffffffffffff1614610655578382826040517f64283d7b00000000000000000000000000000000000000000000000000000000815260040161064c93929190612180565b60405180910390fd5b50505050565b600086868686868660405160200161067896959493929190612214565b6040516020818303038152906040528051906020012090506007600082815260200190815260200160002060009054906101000a900460ff16156106f1576040517f08c379a00000000000000000000000000000000000000000000000000000000081526004016106e8906122c0565b60405180910390fd5b60006040518060c0016040528089815260200188815260200187815260200186815260200185815260200184815250905061072f338360001c610e3a565b60016007600084815260200190815260200160002060006101000a81548160ff0219169083151502179055505050505050505050565b61078083838360405180602001604052806000815250610937565b505050565b600061079082610b41565b9050919050565b60008073ffffffffffffffffffffffffffffffffffffffff168273ffffffffffffffffffffffffffffffffffffffff160361080a5760006040517f89c62b640000000000000000000000000000000000000000000000000000000081526004016108019190611b8a565b60405180910390fd5b600360008373ffffffffffffffffffffffffffffffffffffffff1673ffffffffffffffffffffffffffffffffffffffff168152602001908152602001600020549050919050565b610859610f33565b6108636000610fba565b565b6000600660009054906101000a900473ffffffffffffffffffffffffffffffffffffffff16905090565b60606001805461089e9061214f565b80601f01602080910402602001604051908101604052809291908181526020018280546108ca9061214f565b80156109175780601f106108ec57610100808354040283529160200191610917565b820191906000526020600020905b8154815290600101906020018083116108fa57829003601f168201915b5050505050905090565b61093361092c610c06565b8383611080565b5050565b610942848484610559565b61094e848484846111ef565b50505050565b606061095f82610b41565b50600061096a6113a6565b9050600081511161098a57604051806020016040528060008152506109b5565b80610994846113bd565b6040516020016109a59291906122e0565b6040516020818303038152906040525b915050919050565b6000600560008473ffffffffffffffffffffffffffffffffffffffff1673ffffffffffffffffffffffffffffffffffffffff16815260200190815260200160002060008373ffffffffffffffffffffffffffffffffffffffff1673ffffffffffffffffffffffffffffffffffffffff16815260200190815260200160002060009054906101000a900460ff16905092915050565b610a59610f33565b600073ffffffffffffffffffffffffffffffffffffffff168173ffffffffffffffffffffffffffffffffffffffff1603610acb5760006040517f1e4fbdf7000000000000000000000000000000000000000000000000000000008152600401610ac29190611b8a565b60405180910390fd5b610ad481610fba565b50565b60007f01ffc9a7000000000000000000000000000000000000000000000000000000007bffffffffffffffffffffffffffffffffffffffffffffffffffffffff1916827bffffffffffffffffffffffffffffffffffffffffffffffffffffffff1916149050919050565b600080610b4d8361148b565b9050600073ffffffffffffffffffffffffffffffffffffffff168173ffffffffffffffffffffffffffffffffffffffff1603610bc057826040517f7e273289000000000000000000000000000000000000000000000000000000008152600401610bb79190611f35565b60405180910390fd5b80915050919050565b60006004600083815260200190815260200160002060009054906101000a900473ffffffffffffffffffffffffffffffffffffffff169050919050565b600033905090565b610c1b83838360016114c8565b505050565b600080610c2c8461148b565b9050600073ffffffffffffffffffffffffffffffffffffffff168373ffffffffffffffffffffffffffffffffffffffff1614610c6e57610c6d81848661168d565b5b600073ffffffffffffffffffffffffffffffffffffffff168173ffffffffffffffffffffffffffffffffffffffff1614610cff57610cb06000856000806114c8565b6001600360008373ffffffffffffffffffffffffffffffffffffffff1673ffffffffffffffffffffffffffffffffffffffff168152602001908152602001600020600082825403925050819055505b600073ffffffffffffffffffffffffffffffffffffffff168573ffffffffffffffffffffffffffffffffffffffff1614610d82576001600360008773ffffffffffffffffffffffffffffffffffffffff1673ffffffffffffffffffffffffffffffffffffffff168152602001908152602001600020600082825401925050819055505b846002600086815260200190815260200160002060006101000a81548173ffffffffffffffffffffffffffffffffffffffff021916908373ffffffffffffffffffffffffffffffffffffffff160217905550838573ffffffffffffffffffffffffffffffffffffffff168273ffffffffffffffffffffffffffffffffffffffff167fddf252ad1be2c89b69c2b068fc378daa952ba7f163c4a11628f55a4df523b3ef60405160405180910390a4809150509392505050565b600073ffffffffffffffffffffffffffffffffffffffff168273ffffffffffffffffffffffffffffffffffffffff1603610eac5760006040517f64a0ae92000000000000000000000000000000000000000000000000000000008152600401610ea39190611b8a565b60405180910390fd5b6000610eba83836000610c20565b9050600073ffffffffffffffffffffffffffffffffffffffff168173ffffffffffffffffffffffffffffffffffffffff1614610f2e5760006040517f73c6ac6e000000000000000000000000000000000000000000000000000000008152600401610f259190611b8a565b60405180910390fd5b505050565b610f3b610c06565b73ffffffffffffffffffffffffffffffffffffffff16610f59610865565b73ffffffffffffffffffffffffffffffffffffffff1614610fb857610f7c610c06565b6040517f118cdaa7000000000000000000000000000000000000000000000000000000008152600401610faf9190611b8a565b60405180910390fd5b565b6000600660009054906101000a900473ffffffffffffffffffffffffffffffffffffffff16905081600660006101000a81548173ffffffffffffffffffffffffffffffffffffffff021916908373ffffffffffffffffffffffffffffffffffffffff1602179055508173ffffffffffffffffffffffffffffffffffffffff168173ffffffffffffffffffffffffffffffffffffffff167f8be0079c531659141344cd1fd0a4f28419497f9722a3daafe3b4186f6b6457e060405160405180910390a35050565b600073ffffffffffffffffffffffffffffffffffffffff168273ffffffffffffffffffffffffffffffffffffffff16036110f157816040517f5b08ba180000000000000000000000000000000000000000000000000000000081526004016110e89190611b8a565b60405180910390fd5b80600560008573ffffffffffffffffffffffffffffffffffffffff1673ffffffffffffffffffffffffffffffffffffffff16815260200190815260200160002060008473ffffffffffffffffffffffffffffffffffffffff1673ffffffffffffffffffffffffffffffffffffffff16815260200190815260200160002060006101000a81548160ff0219169083151502179055508173ffffffffffffffffffffffffffffffffffffffff168373ffffffffffffffffffffffffffffffffffffffff167f17307eab39ab6107e8899845ad3d59bd9653f200f220920489ca2b5937696c31836040516111e29190611a19565b60405180910390a3505050565b60008373ffffffffffffffffffffffffffffffffffffffff163b11156113a0578273ffffffffffffffffffffffffffffffffffffffff1663150b7a02611233610c06565b8685856040518563ffffffff1660e01b81526004016112559493929190612359565b6020604051808303816000875af192505050801561129157506040513d601f19601f8201168201806040525081019061128e91906123ba565b60015b611315573d80600081146112c1576040519150601f19603f3d011682016040523d82523d6000602084013e6112c6565b606091505b50600081510361130d57836040517f64a0ae920000000000000000000000000000000000000000000000000000000081526004016113049190611b8a565b60405180910390fd5b805181602001fd5b63150b7a0260e01b7bffffffffffffffffffffffffffffffffffffffffffffffffffffffff1916817bffffffffffffffffffffffffffffffffffffffffffffffffffffffff19161461139e57836040517f64a0ae920000000000000000000000000000000000000000000000000000000081526004016113959190611b8a565b60405180910390fd5b505b50505050565b606060405180602001604052806000815250905090565b6060600060016113cc84611751565b01905060008167ffffffffffffffff8111156113eb576113ea611cd1565b5b6040519080825280601f01601f19166020018201604052801561141d5781602001600182028036833780820191505090505b509050600082602001820190505b600115611480578080600190039150507f3031323334353637383961626364656600000000000000000000000000000000600a86061a8153600a8581611474576114736123e7565b5b0494506000850361142b575b819350505050919050565b60006002600083815260200190815260200160002060009054906101000a900473ffffffffffffffffffffffffffffffffffffffff169050919050565b80806115015750600073ffffffffffffffffffffffffffffffffffffffff168273ffffffffffffffffffffffffffffffffffffffff1614155b1561163557600061151184610b41565b9050600073ffffffffffffffffffffffffffffffffffffffff168373ffffffffffffffffffffffffffffffffffffffff161415801561157c57508273ffffffffffffffffffffffffffffffffffffffff168173ffffffffffffffffffffffffffffffffffffffff1614155b801561158f575061158d81846109bd565b155b156115d157826040517fa9fbf51f0000000000000000000000000000000000000000000000000000000081526004016115c89190611b8a565b60405180910390fd5b811561163357838573ffffffffffffffffffffffffffffffffffffffff168273ffffffffffffffffffffffffffffffffffffffff167f8c5be1e5ebec7d5bd14f71427d1e84f3dd0314c0f7b2291e5b200ac8c7c3b92560405160405180910390a45b505b836004600085815260200190815260200160002060006101000a81548173ffffffffffffffffffffffffffffffffffffffff021916908373ffffffffffffffffffffffffffffffffffffffff16021790555050505050565b6116988383836118a4565b61174c57600073ffffffffffffffffffffffffffffffffffffffff168373ffffffffffffffffffffffffffffffffffffffff160361170d57806040517f7e2732890000000000000000000000000000000000000000000000000000000081526004016117049190611f35565b60405180910390fd5b81816040517f177e802f000000000000000000000000000000000000000000000000000000008152600401611743929190612416565b60405180910390fd5b505050565b600080600090507a184f03e93ff9f4daa797ed6e38ed64bf6a1f01000000000000000083106117af577a184f03e93ff9f4daa797ed6e38ed64bf6a1f01000000000000000083816117a5576117a46123e7565b5b0492506040810190505b6d04ee2d6d415b85acef810000000083106117ec576d04ee2d6d415b85acef810000000083816117e2576117e16123e7565b5b0492506020810190505b662386f26fc10000831061181b57662386f26fc100008381611811576118106123e7565b5b0492506010810190505b6305f5e1008310611844576305f5e100838161183a576118396123e7565b5b0492506008810190505b612710831061186957612710838161185f5761185e6123e7565b5b0492506004810190505b6064831061188c5760648381611882576118816123e7565b5b0492506002810190505b600a831061189b576001810190505b80915050919050565b60008073ffffffffffffffffffffffffffffffffffffffff168373ffffffffffffffffffffffffffffffffffffffff161415801561195c57508273ffffffffffffffffffffffffffffffffffffffff168473ffffffffffffffffffffffffffffffffffffffff16148061191d575061191c84846109bd565b5b8061195b57508273ffffffffffffffffffffffffffffffffffffffff1661194383610bc9565b73ffffffffffffffffffffffffffffffffffffffff16145b5b90509392505050565b6000604051905090565b600080fd5b600080fd5b60007fffffffff0000000000000000000000000000000000000000000000000000000082169050919050565b6119ae81611979565b81146119b957600080fd5b50565b6000813590506119cb816119a5565b92915050565b6000602082840312156119e7576119e661196f565b5b60006119f5848285016119bc565b91505092915050565b60008115159050919050565b611a13816119fe565b82525050565b6000602082019050611a2e6000830184611a0a565b92915050565b600081519050919050565b600082825260208201905092915050565b60005b83811015611a6e578082015181840152602081019050611a53565b60008484015250505050565b6000601f19601f8301169050919050565b6000611a9682611a34565b611aa08185611a3f565b9350611ab0818560208601611a50565b611ab981611a7a565b840191505092915050565b60006020820190508181036000830152611ade8184611a8b565b905092915050565b6000819050919050565b611af981611ae6565b8114611b0457600080fd5b50565b600081359050611b1681611af0565b92915050565b600060208284031215611b3257611b3161196f565b5b6000611b4084828501611b07565b91505092915050565b600073ffffffffffffffffffffffffffffffffffffffff82169050919050565b6000611b7482611b49565b9050919050565b611b8481611b69565b82525050565b6000602082019050611b9f6000830184611b7b565b92915050565b611bae81611b69565b8114611bb957600080fd5b50565b600081359050611bcb81611ba5565b92915050565b60008060408385031215611be857611be761196f565b5b6000611bf685828601611bbc565b9250506020611c0785828601611b07565b9150509250929050565b6000819050919050565b611c2481611c11565b8114611c2f57600080fd5b50565b600081359050611c4181611c1b565b92915050565b600060208284031215611c5d57611c5c61196f565b5b6000611c6b84828501611c32565b91505092915050565b600080600060608486031215611c8d57611c8c61196f565b5b6000611c9b86828701611bbc565b9350506020611cac86828701611bbc565b9250506040611cbd86828701611b07565b9150509250925092565b600080fd5b600080fd5b7f4e487b7100000000000000000000000000000000000000000000000000000000600052604160045260246000fd5b611d0982611a7a565b810181811067ffffffffffffffff82111715611d2857611d27611cd1565b5b80604052505050565b6000611d3b611965565b9050611d478282611d00565b919050565b600067ffffffffffffffff821115611d6757611d66611cd1565b5b611d7082611a7a565b9050602081019050919050565b82818337600083830152505050565b6000611d9f611d9a84611d4c565b611d31565b905082815260208101848484011115611dbb57611dba611ccc565b5b611dc6848285611d7d565b509392505050565b600082601f830112611de357611de2611cc7565b5b8135611df3848260208601611d8c565b91505092915050565b60008060008060008060c08789031215611e1957611e1861196f565b5b600087013567ffffffffffffffff811115611e3757611e36611974565b5b611e4389828a01611dce565b965050602087013567ffffffffffffffff811115611e6457611e63611974565b5b611e7089828a01611dce565b9550506040611e8189828a01611b07565b9450506060611e9289828a01611b07565b935050608087013567ffffffffffffffff811115611eb357611eb2611974565b5b611ebf89828a01611dce565b92505060a087013567ffffffffffffffff811115611ee057611edf611974565b5b611eec89828a01611dce565b9150509295509295509295565b600060208284031215611f0f57611f0e61196f565b5b6000611f1d84828501611bbc565b91505092915050565b611f2f81611ae6565b82525050565b6000602082019050611f4a6000830184611f26565b92915050565b611f59816119fe565b8114611f6457600080fd5b50565b600081359050611f7681611f50565b92915050565b60008060408385031215611f9357611f9261196f565b5b6000611fa185828601611bbc565b9250506020611fb285828601611f67565b9150509250929050565b600067ffffffffffffffff821115611fd757611fd6611cd1565b5b611fe082611a7a565b9050602081019050919050565b6000612000611ffb84611fbc565b611d31565b90508281526020810184848401111561201c5761201b611ccc565b5b612027848285611d7d565b509392505050565b600082601f83011261204457612043611cc7565b5b8135612054848260208601611fed565b91505092915050565b600080600080608085870312156120775761207661196f565b5b600061208587828801611bbc565b945050602061209687828801611bbc565b93505060406120a787828801611b07565b925050606085013567ffffffffffffffff8111156120c8576120c7611974565b5b6120d48782880161202f565b91505092959194509250565b600080604083850312156120f7576120f661196f565b5b600061210585828601611bbc565b925050602061211685828601611bbc565b9150509250929050565b7f4e487b7100000000000000000000000000000000000000000000000000000000600052602260045260246000fd5b6000600282049050600182168061216757607f821691505b60208210810361217a57612179612120565b5b50919050565b60006060820190506121956000830186611b7b565b6121a26020830185611f26565b6121af6040830184611b7b565b949350505050565b600081905092915050565b60006121cd82611a34565b6121d781856121b7565b93506121e7818560208601611a50565b80840191505092915050565b6000819050919050565b61220e61220982611ae6565b6121f3565b82525050565b600061222082896121c2565b915061222c82886121c2565b915061223882876121fd565b60208201915061224882866121fd565b60208201915061225882856121c2565b915061226482846121c2565b9150819050979650505050505050565b7f496e646976696475616c20616c72656164792065786973747300000000000000600082015250565b60006122aa601983611a3f565b91506122b582612274565b602082019050919050565b600060208201905081810360008301526122d98161229d565b9050919050565b60006122ec82856121c2565b91506122f882846121c2565b91508190509392505050565b600081519050919050565b600082825260208201905092915050565b600061232b82612304565b612335818561230f565b9350612345818560208601611a50565b61234e81611a7a565b840191505092915050565b600060808201905061236e6000830187611b7b565b61237b6020830186611b7b565b6123886040830185611f26565b818103606083015261239a8184612320565b905095945050505050565b6000815190506123b4816119a5565b92915050565b6000602082840312156123d0576123cf61196f565b5b60006123de848285016123a5565b91505092915050565b7f4e487b7100000000000000000000000000000000000000000000000000000000600052601260045260246000fd5b600060408201905061242b6000830185611b7b565b6124386020830184611f26565b939250505056fea2646970667358221220ae55c35bd62acaafbd71c7a4e4d00dbd7e306adb5078b37ba940c4aa4fa86fea64736f6c63430008140033",
  "linkReferences": {},
  "deployedLinkReferences": {}
}