{"abi":[{"type":"constructor","inputs":[],"stateMutability":"nonpayable"},{"type":"function","name":"addToRegister","inputs":[{"name":"_ULPIN","type":"string","internalType":"string"},{"name":"_name","type":"string","internalType":"string"},{"name":"_contact","type":"uint256","internalType":"uint256"},{"name":"_aadharNumber","type":"uint256","internalType":"uint256"},{"name":"_plotNo","type":"string","internalType":"string"},{"name":"_propAddress","type":"string","internalType":"string"}],"outputs":[],"stateMutability":"nonpayable"},{"type":"function","name":"approve","inputs":[{"name":"to","type":"address","internalType":"address"},{"name":"tokenId","type":"uint256","internalType":"uint256"}],"outputs":[],"stateMutability":"nonpayable"},{"type":"function","name":"balanceOf","inputs":[{"name":"owner","type":"address","internalType":"address"}],"outputs":[{"name":"","type":"uint256","internalType":"uint256"}],"stateMutability":"view"},{"type":"function","name":"getAllIndividuals","inputs":[],"outputs":[{"name":"","type":"tuple[]","internalType":"struct AceHacks.Individual[]","components":[{"name":"ULPIN","type":"string","internalType":"string"},{"name":"name","type":"string","internalType":"string"},{"name":"contact","type":"uint256","internalType":"uint256"},{"name":"aadharNumber","type":"uint256","internalType":"uint256"},{"name":"plotNo","type":"string","internalType":"string"},{"name":"propAddress","type":"string","internalType":"string"}]}],"stateMutability":"view"},{"type":"function","name":"getApproved","inputs":[{"name":"tokenId","type":"uint256","internalType":"uint256"}],"outputs":[{"name":"","type":"address","internalType":"address"}],"stateMutability":"view"},{"type":"function","name":"individuals","inputs":[{"name":"","type":"uint256","internalType":"uint256"}],"outputs":[{"name":"ULPIN","type":"string","internalType":"string"},{"name":"name","type":"string","internalType":"string"},{"name":"contact","type":"uint256","internalType":"uint256"},{"name":"aadharNumber","type":"uint256","internalType":"uint256"},{"name":"plotNo","type":"string","internalType":"string"},{"name":"propAddress","type":"string","internalType":"string"}],"stateMutability":"view"},{"type":"function","name":"isApprovedForAll","inputs":[{"name":"owner","type":"address","internalType":"address"},{"name":"operator","type":"address","internalType":"address"}],"outputs":[{"name":"","type":"bool","internalType":"bool"}],"stateMutability":"view"},{"type":"function","name":"name","inputs":[],"outputs":[{"name":"","type":"string","internalType":"string"}],"stateMutability":"view"},{"type":"function","name":"owner","inputs":[],"outputs":[{"name":"","type":"address","internalType":"address"}],"stateMutability":"view"},{"type":"function","name":"ownerOf","inputs":[{"name":"tokenId","type":"uint256","internalType":"uint256"}],"outputs":[{"name":"","type":"address","internalType":"address"}],"stateMutability":"view"},{"type":"function","name":"renounceOwnership","inputs":[],"outputs":[],"stateMutability":"nonpayable"},{"type":"function","name":"safeTransferFrom","inputs":[{"name":"from","type":"address","internalType":"address"},{"name":"to","type":"address","internalType":"address"},{"name":"tokenId","type":"uint256","internalType":"uint256"}],"outputs":[],"stateMutability":"nonpayable"},{"type":"function","name":"safeTransferFrom","inputs":[{"name":"from","type":"address","internalType":"address"},{"name":"to","type":"address","internalType":"address"},{"name":"tokenId","type":"uint256","internalType":"uint256"},{"name":"data","type":"bytes","internalType":"bytes"}],"outputs":[],"stateMutability":"nonpayable"},{"type":"function","name":"setApprovalForAll","inputs":[{"name":"operator","type":"address","internalType":"address"},{"name":"approved","type":"bool","internalType":"bool"}],"outputs":[],"stateMutability":"nonpayable"},{"type":"function","name":"supportsInterface","inputs":[{"name":"interfaceId","type":"bytes4","internalType":"bytes4"}],"outputs":[{"name":"","type":"bool","internalType":"bool"}],"stateMutability":"view"},{"type":"function","name":"symbol","inputs":[],"outputs":[{"name":"","type":"string","internalType":"string"}],"stateMutability":"view"},{"type":"function","name":"tokenURI","inputs":[{"name":"tokenId","type":"uint256","internalType":"uint256"}],"outputs":[{"name":"","type":"string","internalType":"string"}],"stateMutability":"view"},{"type":"function","name":"totalIndividuals","inputs":[],"outputs":[{"name":"","type":"uint256","internalType":"uint256"}],"stateMutability":"view"},{"type":"function","name":"transferFrom","inputs":[{"name":"from","type":"address","internalType":"address"},{"name":"to","type":"address","internalType":"address"},{"name":"tokenId","type":"uint256","internalType":"uint256"}],"outputs":[],"stateMutability":"nonpayable"},{"type":"function","name":"transferOwnership","inputs":[{"name":"newOwner","type":"address","internalType":"address"}],"outputs":[],"stateMutability":"nonpayable"},{"type":"event","name":"Approval","inputs":[{"name":"owner","type":"address","indexed":true,"internalType":"address"},{"name":"approved","type":"address","indexed":true,"internalType":"address"},{"name":"tokenId","type":"uint256","indexed":true,"internalType":"uint256"}],"anonymous":false},{"type":"event","name":"ApprovalForAll","inputs":[{"name":"owner","type":"address","indexed":true,"internalType":"address"},{"name":"operator","type":"address","indexed":true,"internalType":"address"},{"name":"approved","type":"bool","indexed":false,"internalType":"bool"}],"anonymous":false},{"type":"event","name":"OwnershipTransferred","inputs":[{"name":"previousOwner","type":"address","indexed":true,"internalType":"address"},{"name":"newOwner","type":"address","indexed":true,"internalType":"address"}],"anonymous":false},{"type":"event","name":"Registered","inputs":[{"name":"tokenId","type":"uint256","indexed":false,"internalType":"uint256"},{"name":"ULPIN","type":"string","indexed":false,"internalType":"string"},{"name":"name","type":"string","indexed":false,"internalType":"string"},{"name":"contact","type":"uint256","indexed":false,"internalType":"uint256"},{"name":"aadharNumber","type":"uint256","indexed":false,"internalType":"uint256"},{"name":"plotNo","type":"string","indexed":false,"internalType":"string"},{"name":"propAddress","type":"string","indexed":false,"internalType":"string"}],"anonymous":false},{"type":"event","name":"Transfer","inputs":[{"name":"from","type":"address","indexed":true,"internalType":"address"},{"name":"to","type":"address","indexed":true,"internalType":"address"},{"name":"tokenId","type":"uint256","indexed":true,"internalType":"uint256"}],"anonymous":false},{"type":"error","name":"ERC721IncorrectOwner","inputs":[{"name":"sender","type":"address","internalType":"address"},{"name":"tokenId","type":"uint256","internalType":"uint256"},{"name":"owner","type":"address","internalType":"address"}]},{"type":"error","name":"ERC721InsufficientApproval","inputs":[{"name":"operator","type":"address","internalType":"address"},{"name":"tokenId","type":"uint256","internalType":"uint256"}]},{"type":"error","name":"ERC721InvalidApprover","inputs":[{"name":"approver","type":"address","internalType":"address"}]},{"type":"error","name":"ERC721InvalidOperator","inputs":[{"name":"operator","type":"address","internalType":"address"}]},{"type":"error","name":"ERC721InvalidOwner","inputs":[{"name":"owner","type":"address","internalType":"address"}]},{"type":"error","name":"ERC721InvalidReceiver","inputs":[{"name":"receiver","type":"address","internalType":"address"}]},{"type":"error","name":"ERC721InvalidSender","inputs":[{"name":"sender","type":"address","internalType":"address"}]},{"type":"error","name":"ERC721NonexistentToken","inputs":[{"name":"tokenId","type":"uint256","internalType":"uint256"}]},{"type":"error","name":"OwnableInvalidOwner","inputs":[{"name":"owner","type":"address","internalType":"address"}]},{"type":"error","name":"OwnableUnauthorizedAccount","inputs":[{"name":"account","type":"address","internalType":"address"}]}],"bytecode":{"object":"0x608060405234801561001057600080fd5b50336040518060400160405280600f81526020016e149959da5cdd1c985d1a5bdb939195608a1b8152506040518060400160405280600381526020016252454760e81b815250816000908161006591906101a3565b50600161007282826101a3565b5050506001600160a01b0381166100a357604051631e4fbdf760e01b81526000600482015260240160405180910390fd5b6100ac816100b2565b50610261565b600680546001600160a01b038381166001600160a01b0319831681179093556040519116919082907f8be0079c531659141344cd1fd0a4f28419497f9722a3daafe3b4186f6b6457e090600090a35050565b634e487b7160e01b600052604160045260246000fd5b600181811c9082168061012e57607f821691505b60208210810361014e57634e487b7160e01b600052602260045260246000fd5b50919050565b601f82111561019e57806000526020600020601f840160051c8101602085101561017b5750805b601f840160051c820191505b8181101561019b5760008155600101610187565b50505b505050565b81516001600160401b038111156101bc576101bc610104565b6101d0816101ca845461011a565b84610154565b6020601f82116001811461020457600083156101ec5750848201515b600019600385901b1c1916600184901b17845561019b565b600084815260208120601f198516915b828110156102345787850151825560209485019460019092019101610214565b50848210156102525786840151600019600387901b60f8161c191681555b50505050600190811b01905550565b611bbb806102706000396000f3fe608060405234801561001057600080fd5b506004361061012c5760003560e01c806368350c0a116100ad578063a22cb46511610071578063a22cb4651461027f578063b88d4fde14610292578063c87b56dd146102a5578063e985e9c5146102b8578063f2fde38b146102cb57600080fd5b806368350c0a1461023657806370a082311461024b578063715018a61461025e5780638da5cb5b1461026657806395d89b411461027757600080fd5b806323b872dd116100f457806323b872dd146101c55780633bf4924b146101d857806342842e0e146101eb5780636352211e146101fe57806366542aa71461021157600080fd5b806301ffc9a71461013157806305845c691461015957806306fdde0314610170578063081812fc14610185578063095ea7b3146101b0575b600080fd5b61014461013f36600461141f565b6102de565b60405190151581526020015b60405180910390f35b61016260085481565b604051908152602001610150565b610178610330565b604051610150919061148c565b61019861019336600461149f565b6103c2565b6040516001600160a01b039091168152602001610150565b6101c36101be3660046114d4565b6103eb565b005b6101c36101d33660046114fe565b6103fa565b6101c36101e63660046115eb565b61048a565b6101c36101f93660046114fe565b6105ae565b61019861020c36600461149f565b6105ce565b61022461021f36600461149f565b6105d9565b604051610150969594939291906116bd565b61023e61082d565b6040516101509190611723565b6101626102593660046117f7565b610b75565b6101c3610bbd565b6006546001600160a01b0316610198565b610178610bd1565b6101c361028d366004611812565b610be0565b6101c36102a036600461184e565b610beb565b6101786102b336600461149f565b610c02565b6101446102c63660046118ca565b610c77565b6101c36102d93660046117f7565b610ca5565b60006001600160e01b031982166380ac58cd60e01b148061030f57506001600160e01b03198216635b5e139f60e01b145b8061032a57506301ffc9a760e01b6001600160e01b03198316145b92915050565b60606000805461033f906118fd565b80601f016020809104026020016040519081016040528092919081815260200182805461036b906118fd565b80156103b85780601f1061038d576101008083540402835291602001916103b8565b820191906000526020600020905b81548152906001019060200180831161039b57829003601f168201915b5050505050905090565b60006103cd82610ce3565b506000828152600460205260409020546001600160a01b031661032a565b6103f6828233610d1c565b5050565b6001600160a01b03821661042957604051633250574960e11b8152600060048201526024015b60405180910390fd5b6000610436838333610d29565b9050836001600160a01b0316816001600160a01b031614610484576040516364283d7b60e01b81526001600160a01b0380861660048301526024820184905282166044820152606401610420565b50505050565b6000600854600161049b9190611947565b90506104a73382610e22565b6040805160c0810182528881526020808201899052818301889052606082018790526080820186905260a082018590526000848152600790915291909120815182919081906104f690826119a1565b506020820151600182019061050b90826119a1565b5060408201516002820155606082015160038201556080820151600482019061053490826119a1565b5060a0820151600582019061054990826119a1565b5050600880549150600061055c83611a60565b91905055507f4f788f97221537aae2176a837e35bad7b7fe48e58eb60872b0b5486d038c619c8289898989898960405161059c9796959493929190611a79565b60405180910390a15050505050505050565b6105c983838360405180602001604052806000815250610beb565b505050565b600061032a82610ce3565b6007602052600090815260409020805481906105f4906118fd565b80601f0160208091040260200160405190810160405280929190818152602001828054610620906118fd565b801561066d5780601f106106425761010080835404028352916020019161066d565b820191906000526020600020905b81548152906001019060200180831161065057829003601f168201915b505050505090806001018054610682906118fd565b80601f01602080910402602001604051908101604052809291908181526020018280546106ae906118fd565b80156106fb5780601f106106d0576101008083540402835291602001916106fb565b820191906000526020600020905b8154815290600101906020018083116106de57829003601f168201915b50505050509080600201549080600301549080600401805461071c906118fd565b80601f0160208091040260200160405190810160405280929190818152602001828054610748906118fd565b80156107955780601f1061076a57610100808354040283529160200191610795565b820191906000526020600020905b81548152906001019060200180831161077857829003601f168201915b5050505050908060050180546107aa906118fd565b80601f01602080910402602001604051908101604052809291908181526020018280546107d6906118fd565b80156108235780601f106107f857610100808354040283529160200191610823565b820191906000526020600020905b81548152906001019060200180831161080657829003601f168201915b5050505050905086565b6060600060085467ffffffffffffffff81111561084c5761084c61153b565b6040519080825280602002602001820160405280156108b657816020015b6108a36040518060c001604052806060815260200160608152602001600081526020016000815260200160608152602001606081525090565b81526020019060019003908161086a5790505b50905060015b600854811015610b6f57600760006108d5836001611947565b81526020019081526020016000206040518060c00160405290816000820180546108fe906118fd565b80601f016020809104026020016040519081016040528092919081815260200182805461092a906118fd565b80156109775780601f1061094c57610100808354040283529160200191610977565b820191906000526020600020905b81548152906001019060200180831161095a57829003601f168201915b50505050508152602001600182018054610990906118fd565b80601f01602080910402602001604051908101604052809291908181526020018280546109bc906118fd565b8015610a095780601f106109de57610100808354040283529160200191610a09565b820191906000526020600020905b8154815290600101906020018083116109ec57829003601f168201915b505050505081526020016002820154815260200160038201548152602001600482018054610a36906118fd565b80601f0160208091040260200160405190810160405280929190818152602001828054610a62906118fd565b8015610aaf5780601f10610a8457610100808354040283529160200191610aaf565b820191906000526020600020905b815481529060010190602001808311610a9257829003601f168201915b50505050508152602001600582018054610ac8906118fd565b80601f0160208091040260200160405190810160405280929190818152602001828054610af4906118fd565b8015610b415780601f10610b1657610100808354040283529160200191610b41565b820191906000526020600020905b815481529060010190602001808311610b2457829003601f168201915b505050505081525050828281518110610b5c57610b5c611ae6565b60209081029190910101526001016108bc565b50919050565b60006001600160a01b038216610ba1576040516322718ad960e21b815260006004820152602401610420565b506001600160a01b031660009081526003602052604090205490565b610bc5610e87565b610bcf6000610eb4565b565b60606001805461033f906118fd565b6103f6338383610f06565b610bf68484846103fa565b61048484848484610fa5565b6060610c0d82610ce3565b506000610c2560408051602081019091526000815290565b90506000815111610c455760405180602001604052806000815250610c70565b80610c4f846110ce565b604051602001610c60929190611afc565b6040516020818303038152906040525b9392505050565b6001600160a01b03918216600090815260056020908152604080832093909416825291909152205460ff1690565b610cad610e87565b6001600160a01b038116610cd757604051631e4fbdf760e01b815260006004820152602401610420565b610ce081610eb4565b50565b6000818152600260205260408120546001600160a01b03168061032a57604051637e27328960e01b815260048101849052602401610420565b6105c98383836001611161565b6000828152600260205260408120546001600160a01b0390811690831615610d5657610d56818486611267565b6001600160a01b03811615610d9457610d73600085600080611161565b6001600160a01b038116600090815260036020526040902080546000190190555b6001600160a01b03851615610dc3576001600160a01b0385166000908152600360205260409020805460010190555b60008481526002602052604080822080546001600160a01b0319166001600160a01b0389811691821790925591518793918516917fddf252ad1be2c89b69c2b068fc378daa952ba7f163c4a11628f55a4df523b3ef91a4949350505050565b6001600160a01b038216610e4c57604051633250574960e11b815260006004820152602401610420565b6000610e5a83836000610d29565b90506001600160a01b038116156105c9576040516339e3563760e11b815260006004820152602401610420565b6006546001600160a01b03163314610bcf5760405163118cdaa760e01b8152336004820152602401610420565b600680546001600160a01b038381166001600160a01b0319831681179093556040519116919082907f8be0079c531659141344cd1fd0a4f28419497f9722a3daafe3b4186f6b6457e090600090a35050565b6001600160a01b038216610f3857604051630b61174360e31b81526001600160a01b0383166004820152602401610420565b6001600160a01b03838116600081815260056020908152604080832094871680845294825291829020805460ff191686151590811790915591519182527f17307eab39ab6107e8899845ad3d59bd9653f200f220920489ca2b5937696c31910160405180910390a3505050565b6001600160a01b0383163b1561048457604051630a85bd0160e11b81526001600160a01b0384169063150b7a0290610fe7903390889087908790600401611b2b565b6020604051808303816000875af1925050508015611022575060408051601f3d908101601f1916820190925261101f91810190611b68565b60015b61108b573d808015611050576040519150601f19603f3d011682016040523d82523d6000602084013e611055565b606091505b50805160000361108357604051633250574960e11b81526001600160a01b0385166004820152602401610420565b805181602001fd5b6001600160e01b03198116630a85bd0160e11b146110c757604051633250574960e11b81526001600160a01b0385166004820152602401610420565b5050505050565b606060006110db836112cb565b600101905060008167ffffffffffffffff8111156110fb576110fb61153b565b6040519080825280601f01601f191660200182016040528015611125576020820181803683370190505b5090508181016020015b600019016f181899199a1a9b1b9c1cb0b131b232b360811b600a86061a8153600a850494508461112f57509392505050565b808061117557506001600160a01b03821615155b1561123757600061118584610ce3565b90506001600160a01b038316158015906111b15750826001600160a01b0316816001600160a01b031614155b80156111c457506111c28184610c77565b155b156111ed5760405163a9fbf51f60e01b81526001600160a01b0384166004820152602401610420565b81156112355783856001600160a01b0316826001600160a01b03167f8c5be1e5ebec7d5bd14f71427d1e84f3dd0314c0f7b2291e5b200ac8c7c3b92560405160405180910390a45b505b5050600090815260046020526040902080546001600160a01b0319166001600160a01b0392909216919091179055565b6112728383836113a3565b6105c9576001600160a01b0383166112a057604051637e27328960e01b815260048101829052602401610420565b60405163177e802f60e01b81526001600160a01b038316600482015260248101829052604401610420565b60008072184f03e93ff9f4daa797ed6e38ed64bf6a1f0160401b831061130a5772184f03e93ff9f4daa797ed6e38ed64bf6a1f0160401b830492506040015b6d04ee2d6d415b85acef81000000008310611336576d04ee2d6d415b85acef8100000000830492506020015b662386f26fc10000831061135457662386f26fc10000830492506010015b6305f5e100831061136c576305f5e100830492506008015b612710831061138057612710830492506004015b60648310611392576064830492506002015b600a831061032a5760010192915050565b60006001600160a01b038316158015906114015750826001600160a01b0316846001600160a01b031614806113dd57506113dd8484610c77565b8061140157506000828152600460205260409020546001600160a01b038481169116145b949350505050565b6001600160e01b031981168114610ce057600080fd5b60006020828403121561143157600080fd5b8135610c7081611409565b60005b8381101561145757818101518382015260200161143f565b50506000910152565b6000815180845261147881602086016020860161143c565b601f01601f19169290920160200192915050565b602081526000610c706020830184611460565b6000602082840312156114b157600080fd5b5035919050565b80356001600160a01b03811681146114cf57600080fd5b919050565b600080604083850312156114e757600080fd5b6114f0836114b8565b946020939093013593505050565b60008060006060848603121561151357600080fd5b61151c846114b8565b925061152a602085016114b8565b929592945050506040919091013590565b634e487b7160e01b600052604160045260246000fd5b60008067ffffffffffffffff84111561156c5761156c61153b565b50604051601f19601f85018116603f0116810181811067ffffffffffffffff8211171561159b5761159b61153b565b6040528381529050808284018510156115b357600080fd5b83836020830137600060208583010152509392505050565b600082601f8301126115dc57600080fd5b610c7083833560208501611551565b60008060008060008060c0878903121561160457600080fd5b863567ffffffffffffffff81111561161b57600080fd5b61162789828a016115cb565b965050602087013567ffffffffffffffff81111561164457600080fd5b61165089828a016115cb565b9550506040870135935060608701359250608087013567ffffffffffffffff81111561167b57600080fd5b61168789828a016115cb565b92505060a087013567ffffffffffffffff8111156116a457600080fd5b6116b089828a016115cb565b9150509295509295509295565b60c0815260006116d060c0830189611460565b82810360208401526116e28189611460565b905086604084015285606084015282810360808401526117028186611460565b905082810360a08401526117168185611460565b9998505050505050505050565b6000602082016020835280845180835260408501915060408160051b86010192506020860160005b828110156117eb57603f198786030184528151805160c0875261177160c0880182611460565b90506020820151878203602089015261178a8282611460565b9150506040820151604088015260608201516060880152608082015187820360808901526117b88282611460565b91505060a0820151915086810360a08801526117d48183611460565b96505050602093840193919091019060010161174b565b50929695505050505050565b60006020828403121561180957600080fd5b610c70826114b8565b6000806040838503121561182557600080fd5b61182e836114b8565b91506020830135801515811461184357600080fd5b809150509250929050565b6000806000806080858703121561186457600080fd5b61186d856114b8565b935061187b602086016114b8565b925060408501359150606085013567ffffffffffffffff81111561189e57600080fd5b8501601f810187136118af57600080fd5b6118be87823560208401611551565b91505092959194509250565b600080604083850312156118dd57600080fd5b6118e6836114b8565b91506118f4602084016114b8565b90509250929050565b600181811c9082168061191157607f821691505b602082108103610b6f57634e487b7160e01b600052602260045260246000fd5b634e487b7160e01b600052601160045260246000fd5b8082018082111561032a5761032a611931565b601f8211156105c957806000526020600020601f840160051c810160208510156119815750805b601f840160051c820191505b818110156110c7576000815560010161198d565b815167ffffffffffffffff8111156119bb576119bb61153b565b6119cf816119c984546118fd565b8461195a565b6020601f821160018114611a0357600083156119eb5750848201515b600019600385901b1c1916600184901b1784556110c7565b600084815260208120601f198516915b82811015611a335787850151825560209485019460019092019101611a13565b5084821015611a515786840151600019600387901b60f8161c191681555b50505050600190811b01905550565b600060018201611a7257611a72611931565b5060010190565b87815260e060208201526000611a9260e0830189611460565b8281036040840152611aa48189611460565b905086606084015285608084015282810360a0840152611ac48186611460565b905082810360c0840152611ad88185611460565b9a9950505050505050505050565b634e487b7160e01b600052603260045260246000fd5b60008351611b0e81846020880161143c565b835190830190611b2281836020880161143c565b01949350505050565b6001600160a01b0385811682528416602082015260408101839052608060608201819052600090611b5e90830184611460565b9695505050505050565b600060208284031215611b7a57600080fd5b8151610c708161140956fea2646970667358221220127103ff220b512937020abac67cdefca8a02a8abdad83d0963b19a61980de2f64736f6c634300081a0033","linkReferences":{}},"methodIdentifiers":{"addToRegister(string,string,uint256,uint256,string,string)":"3bf4924b","approve(address,uint256)":"095ea7b3","balanceOf(address)":"70a08231","getAllIndividuals()":"68350c0a","getApproved(uint256)":"081812fc","individuals(uint256)":"66542aa7","isApprovedForAll(address,address)":"e985e9c5","name()":"06fdde03","owner()":"8da5cb5b","ownerOf(uint256)":"6352211e","renounceOwnership()":"715018a6","safeTransferFrom(address,address,uint256)":"42842e0e","safeTransferFrom(address,address,uint256,bytes)":"b88d4fde","setApprovalForAll(address,bool)":"a22cb465","supportsInterface(bytes4)":"01ffc9a7","symbol()":"95d89b41","tokenURI(uint256)":"c87b56dd","totalIndividuals()":"05845c69","transferFrom(address,address,uint256)":"23b872dd","transferOwnership(address)":"f2fde38b"},"id":24}